:100000000C944B000C9462020C9488030C949C0298
:100010000C9468000C9468000C9468000C946800C0
:100020000C94C9060C9496030C9468000C94680018
:100030000C9468000C9468000C9468000C946800A0
:100040000C9468000C9468000C9468000C94680090
:100050000C9468004F70656E4465636F646572321E
:100060002E320001000F0F0F0F0A0D80000000005C
:1000700000000000000100010000000000100080EE
:100080000D000001012E2E2E2E20535749544348B7
:10009000202E2E2E2E0011241FBECFE5D4E0DEBF71
:1000A000CDBF10E0A0E6B0E0EAEAF2E202C00590BF
:1000B0000D92A638B107D9F721E0A6E8B0E001C05B
:1000C0001D92AC32B207E1F70E940F0E0C9453114F
:1000D0000C9400008CE00E94C8010E94930180E60D
:1000E00090E00E94AD0161E080E00E9488018AE614
:1000F00090E00C94AD01CF93DF931F92CDB7DEB7A4
:10010000282F30E03093BD002093BC0089830E94EB
:1001100093011F9289818F9386E790E09F938F933D
:1001200088EA90E09F938F930E946D0E0F900F903E
:100130000F900F900F900F9088EA90E00F90DF9152
:10014000CF910C94AD01CF93C82F282F30E030937E
:10015000BD002093BC0061E080E00E9488011F92F6
:10016000CF9386E790E09F938F9388EA90E09F93E8
:100170008F930E946D0E0F900F900F900F900F9025
:100180000F9088EA90E0CF910C94AD01CF93DF936C
:1001900000D0CDB7DEB789839A830E9493019A81FC
:1001A0009F9389818F938EE790E09F938F9388EA46
:1001B00090E09F938F930E946D0E0F900F900F9081
:1001C0000F900F900F9088EA90E00F900F90DF91C2
:1001D000CF910C94AD011F93CF93DF931F92CDB7B6
:1001E000DEB7182F61E080E099830E948801998131
:1001F0009F931F938EE790E09F938F9388EA90E000
:100200009F938F930E946D0E0F900F900F900F9001
:100210000F900F9088EA90E00F90DF91CF911F919F
:100220000C94AD01CF93DF9300D0CDB7DEB78983B7
:100230009A830E94930189819A810F900F90DF9198
:10024000CF910C94AD01CF93DF93EC0161E080E09E
:100250000E948801CE01DF91CF910C94AD01C69A26
:1002600000C0C69808951F93CF93DF931F92CDB718
:10027000DEB7662311F0C49A01C0C498C59897B33D
:100280009F6097BB18B3107F982F92959F70912B0A
:1002900098BB89830E942F0189818F70812B88BB35
:1002A0000E942F011F6018BB0F90DF91CF911F910B
:1002B0000895C498C59A87B3807F87BBC69A00C04B
:1002C00086B3C69800C0C69A00C096B39F70829548
:1002D000807FC698892B08950E94590187FDFCCF25
:1002E00085E090E00197F1F70C945901CF93C82F66
:1002F0000E946C0160E08C2FCF910C943301CF935E
:10030000C82F0E946C0161E08C2FCF910C943301B7
:10031000611102C0805801C080540C9476010E9483
:100320006C0190E0089581E00C94760182E00C94D9
:100330007601CF93C82F0E946C01CA3049F48034F3
:1003400010F480E401C080E08058CF910C947601D5
:1003500061E08C2FCF910C943301CF93DF93EC01AC
:100360008991882319F00E949901FACFDF91CF91EA
:100370000895CF93DF93FC018491EF0121968823A8
:1003800021F00E949901FE01F7CFDF91CF910895EE
:10039000CF93C82F97B39F6797BBE0ECFCEA3197E8
:1003A000F1F7C19AC09A0E942F01E5EEF5E331976B
:1003B000F1F70E942F01E0EBF0E03197F1F70E9496
:1003C0002F01E0EBF0E03197F1F7C0980E942F0188
:1003D000E0EBF0E03197F1F788E20E94760188E0E7
:1003E0000E9476010E94930186E00E9476018C2F84
:1003F000CF910C94760183E08093BE00909A08958B
:100400001092BE009098089581E08093BE0084E031
:100410008093BF00909A089581E08093BE0082E0AF
:100420008093BF00909A089592E09093BE008093CD
:10043000C30081E08093C40083E28093C2008CE01B
:100440008093C10086E08093C0008093BF00909AA3
:1004500008958091BE008330A1F1882391F181300D
:1004600051F48091BF0081508093BF00811129C059
:100470001092BE001CC0823021F58091BF008150D7
:100480008093BF0081111DC08091C400809B11C06A
:100490009091C300891307C08091C2008093BF0070
:1004A0001092C40004C08091C1008093BF00909856
:1004B00008958F5F8093C4008091C0008093BF0037
:1004C000909A08951F920F920FB60F9211242F93B6
:1004D0003F934F938F939F938091CC008823D9F0C3
:1004E00040919E009091C6008091C50021E030E0CF
:1004F000491711F020E030E090E082239323892B0C
:1005000031F0442331F08091CA008CB902C04138E7
:1005100010F01092CC008091C6008F5F8093C600CF
:100520001092C7009F918F914F913F912F910F9003
:100530000FBE0F901F9018951F920F920FB60F923B
:1005400011248F9314BC8091C9008F5F8093C900E0
:100550008091CD008F5F8093CD008091C8008F5F28
:100560008093C8008091C7008F5F8093C7008091FF
:10057000C700853080F01092C7008091C600823895
:1005800031F481E08093C5001092C80002C010923F
:10059000C5001092C6008091C800883C40F01092BF
:1005A000C5001092CB001092CC001092C8008F9121
:1005B0000F900FBE0F901F9018958BE283BD89B7E7
:1005C000806889BF85B5886085BD85B5866085BD35
:1005D0001092C80014BC08958BB780648BBF85B798
:1005E000826085BF1092C6000895539A80B58668D0
:1005F00080BD8FE889B910BC08951092C500109293
:10060000CB001092CC001092CA000E94F5020E940A
:10061000EC020C94DD02282F2460922F092E929573
:100620009025092E9695969590259F5F91FD02C085
:10063000282F25602093CA0081E08093CC000C9481
:100640000402CF93C82F80E880939E008091CC0055
:10065000811136C09C2F92709295990F907E8C2FAD
:100660008470880F880F880F892B90E8C99F9001AC
:100670001124822B9C2F9870990F892B0E940B03B9
:100680008091CC008111FCCF8C2F8071880F880F56
:10069000880F4C2F4072440F482B48602C2F207439
:1006A00030E035952795422BC0788C2F90E023E0E1
:1006B000959587952A95E1F7842BCF910C940B03A0
:1006C000CF910895979A90E02CEC3AE0981729F092
:1006D000F9013197F1F79F5FF9CF9798089583B7A4
:1006E00083BF83B783BF86E982BFF89480918F0070
:1006F00080918F008E7F80938F00789489B781607E
:1007000089BF8BB780688BBF85B78C6085BF089524
:100710001F920F920FB60F9211248F9382E083BF26
:100720008F910F900FBE0F901F9018951F920F92F0
:100730000FB60F9211242F938F939F93AF93BF9374
:10074000EF93FF938091DD00839B02C08F7701C000
:1007500080688093DD0013BE86E982BF9091DF0040
:100760009F5F9093DF008091DD0080FF0AC087FFCC
:1007700005C09A3008F459C082E055C01092DF00DD
:1007800054C081FF05C087FD50C01092E00042C0F8
:1007900082FF19C02091E100220F87FD2160209384
:1007A000E100983009F041C0E091E00081E0E630DE
:1007B000D1F18E0F8093E000F0E0E153FF4F2183F1
:1007C0009093DD0032C083FF2DC087FF23C081E0FE
:1007D0008093DD008093DF0080918F0080FD25C035
:1007E000E7EDF0E080E090E0DC01A153BF4F11960F
:1007F0002C912193019686309105B1F78091E0000C
:100800008093D600F89480918F00816080938F0050
:1008100078940BC084E08093DD001092DF0010928A
:10082000E10003C081E08093DD00FF91EF91BF9173
:10083000AF919F918F912F910F900FBE0F901F90AE
:1008400018950097C1F09C012250310924303105E0
:1008500090F0265031092230310568F02A503109D4
:100860002330310540F02E50310981E0223031052E
:1008700018F080E0089581E00895CF92DF92FF9212
:100880000F931F93CF93DF931F92CDB7DEB7909A4C
:1008900090E1F92E03E610E020E0C22E20E0D22EF7
:1008A000F8016491C60169830E940D0E6981861763
:1008B00071F0C6010E940B0EFA94F8E0FF1202C01C
:1008C000909805C0F11003C0909A80E1F82E8FEF48
:1008D000C81AD80A0F5F1F4FE2E2CE16E0E0DE062C
:1008E000F9F6E199FECF90980F90DF91CF911F918B
:1008F0000F91FF90DF90CF9008958091A300909189
:10090000A400805090400E940D0E90919600891393
:1009100003C086E00C94620308958091A300909137
:10092000A4008631910519F48091E40010C087314C
:10093000910519F48091E5000AC08931910519F4F7
:1009400080919B0004C0805090400E940D0E0C943A
:1009500021030F931F93CF93DF9380919600982FDD
:100960009770C1E0D0E0092E01C0CC0F0A94EAF7DD
:100970000091A3001091A40084FF24C0C8010E942C
:100980002104882381F1C801805090400E940D0EFF
:10099000909196006C2F93FF02C0682B02C0609567
:1009A00068238091A3009091A400805090400E9401
:1009B0000B0EE199FECF86E0DF91CF911F910F9151
:1009C0000C94620383FF08C0C801805090400E94CD
:1009D0000D0E8C2341F0EFCFC801805090400E9453
:1009E0000D0E8C2341F3DF91CF911F910F9108954C
:1009F0001F93CF93DF93182F2091A3003091A40071
:100A000040918B0050918C008091960090919700BE
:100A10004217530771F440918A0048130AC040916D
:100A20008900491306C0409188004F5F40938800B9
:100A30000BC041E04093880030938C0020938B00E2
:100A400080938A009093890040918800423009F099
:100A500076C031703093A4002093A3002232310578
:100A600008F06DC0923009F463C0933079F0913092
:100A700009F065C0153029F4DF91CF911F910C94D6
:100A80007D04DF91CF911F910C948D0427303105A7
:100A900069F48D3059F4153019F486E00E94620330
:100AA0000E943D04F894E0E0F0E009952091A30055
:100AB0003091A4002831310541F4809196008823BB
:100AC00021F0F894E0E0F0E00995C091A300D09106
:100AD000A400C631D105A1F480919600882349F085
:100AE00081E08093E40088E0DF91CF911F910C9426
:100AF00014021092E400DF91CF911F910C94000238
:100B0000CE010E9421048823D1F060919600CE018D
:100B1000805090400E940B0EE199FECF153079F481
:100B200086E00E946203F894E0E0F0E0099507C0D7
:100B3000153029F4DF91CF911F910C94A904DF9116
:100B4000CF911F9108958091860090918700019622
:100B500090938700809386008536910530F010923F
:100B60008800109287001092860008958CE782BB5F
:100B700083E881BB1ABA8FEF87BB84BB1BBA18BA54
:100B800015BA089584E690E02CEC3AE0F90131972B
:100B9000F1F701970097D1F70895CF93DF930E9463
:100BA000C20586995CC00E94FB01C0E0D0E0869936
:100BB00004C00E94C2052196FACFE3970CF049C009
:100BC0000E94C205869B4BC0F89490918F00809143
:100BD0008F008E7F80938F00789490FFF3CF86ED07
:100BE00090E00E945E098091A2008150823050F70F
:100BF000C0919900D0919A00C11582E0D80718F5EC
:100C00006C2F6F7380E090E00E940B0EBE0186E0B7
:100C1000769567958A95E1F788E090E00E940B0E43
:100C2000809190008B7F803171F460919900709178
:100C30009A006138710510F46F5F01C060E089E0CF
:100C400090E00E940B0E9098F894E0E0F0E0099597
:100C5000B9CF0E943D04F894E0E0F0E00995DF91FF
:100C6000CF910895CF938CE190E00E940D0E807497
:100C7000809393008AE190E00E940D0E8093900093
:100C800080E090E00E940D0EC82F88E090E00E9466
:100C90000D0E877090919300282F30E04C2F50E07C
:100CA000913031F066E0220F331F6A95E1F702C000
:100CB000322F2227240F351F3093A1002093A0004C
:100CC000C03430F08FEF9FEF9093A1008093A0008D
:100CD0008091A0009091A1008115924030F08FEF9B
:100CE0009FEF9093A1008093A00088E090E00E9485
:100CF0000D0E87FF06C08FEF9FEF9093A1008093AA
:100D0000A00089E090E00E940D0E813818F48093D5
:100D1000980002C0109298008091A0009091A100CC
:100D2000885A944E88352BE1920710F487E59BE1B1
:100D30009093A7008093A6008091A6009091A700B1
:100D400088359C4130F087E59BE19093A700809324
:100D5000A60080E290E00E940D0E80939F0010920A
:100D6000A200CF9108958CE69BE697BD86BD8FE5E6
:100D700095E09BBD8ABD89E297E099BD88BD82E080
:100D80008FBD8AE18EBD89B7846089BF1092E6006D
:100D900008951F920F920FB60F9211248F9389B767
:100DA0008B7F89BF78948091E6008F5F8093E60007
:100DB00081E08093E70089B7846089BF8F910F90AD
:100DC0000FBE0F901F90189580918D008F5F83301C
:100DD00020F480938D0080E0089510928D0081E0D2
:100DE000089580918E00863028F08FEF80938E00DA
:100DF00080E008958F5F80938E0081E00895FC016C
:100E00008091E6009091E800891B823010F01092EA
:100E1000F400818181110BC0928191115DC091E03C
:100E20009093F4009091E6009093E800089590E983
:100E3000980F903108F046C090819430D9F54091D8
:100E4000F400942F91609093F4009091E6009093B9
:100E5000E8002281982F9C7041FF1AC096959695C4
:100E60003091970093130FC0837030E0382B80913E
:100E7000A3009091A4002817390729F49381809149
:100E80009600981731F14D7F41604093F40023C0E4
:100E900043604093F40096959695909397008370E5
:100EA00030E0382B3093A4002093A30083818093FB
:100EB000960011C0933079F48091F40081608093A2
:100EC000F40002C08F3F39F48091E6008093E8007F
:100ED00002C085E0089580E00895FC0182818111BF
:100EE00009C08091F40081608093F4008091E60055
:100EF0008093E80080E008955091EC004091E90073
:100F0000942F95279823C1F1813029F410929D00E8
:100F100010929C0012C0823019F421E030E009C028
:100F2000843019F422E030E004C0883031F423E04A
:100F300030E030939D0020939C00582339F021E04D
:100F400030E0309392002093910004C01092920000
:100F50001092910091E09093A50020919100309122
:100F60009200232B21F0842B8093E90005C080950B
:100F700084238093E90091E0892F0895FC01818109
:100F80008F7790E0909395008093940080E008958F
:100F9000FC0181818F7390E0982F88272281822B1A
:100FA00090939500809394002091EF003091F00091
:100FB00082179307B8F02091ED003091EE002817CA
:100FC000390780F08381982F907E903821F58F70BB
:100FD0008093EC009091E900891721F09F3F21F464
:100FE0008093E90080E0089581E00E947C078823D7
:100FF00011F083E0089582E00E947C078111F9CF0F
:1010000084E00E947C078111F4CF88E00E947C0775
:101010008111EFCF0895903E29F784FDE3CF982FFB
:101020009C709695969590939700837090E0982F7A
:1010300088272481822B9093A4008093A30085812C
:101040008093960084E00895EF92FF920F931F9390
:10105000CF93DF93EC012A818091930027FFD7C0C3
:101060008111D7C0822F90E0809590958077992745
:10107000880F991F880F991F29812F73822B9093B6
:101080009A008093990082E190E00E940D0E8130D9
:1010900039F58091990090919A00009719F480E4B5
:1010A00090E011C08034910519F480E890E00BC005
:1010B0008038910519F480EC90E005C0803C9105E2
:1010C00031F480E091E090939A00809399008091B0
:1010D000990090919A00019790939A0080939900BB
:1010E0008A81982F9670E92EF12CF594E794E0927E
:1010F000F100982F9170909391001092920083FFCD
:1011000004C091E09093A50002C01092A5009881C0
:10111000933009F056C0C0919900D0919A0084E1B3
:1011200090E00E940D0E2091990030919A0040911C
:10113000A0005091A1008130B1F48091F1002417FA
:10114000350718F181FB002700F910E0C901841B65
:10115000950BAC01440F551F040F151F10939D00F4
:1011600000939C0012C02417350778F0C901841B36
:10117000950B880F991F880F991F4091F100840FDC
:10118000911D90939D0080939C002F3F314011F45E
:1011900082E08DC0CE01880F991F880F991F8E0D98
:1011A0009F1D2091F2003091F3008217930738F0D1
:1011B0002091EA003091EB002817390748F781E0C9
:1011C00076C0963031F587708093F1008B81982F2F
:1011D0009C709695969590939700837090E0982FC9
:1011E00088272C81822B9093A4008093A3008D816B
:1011F000809396002091990030919A008091A000F0
:101200009091A1002817390721F484E050C0811182
:1012100002C080E04CC0898134E0839FC00111246A
:101220009927422F467050E055954795842B952B72
:1012300030E0209530952077332774E03595279559
:101240007A95E1F7822B932B90939A0080939900E3
:101250002881243069F42B812F712093F100209193
:10126000A0003091A1008217930709F0A8CF90CF7A
:10127000263079F62B81322F3C7036953695309397
:101280009700237030E0322F22274C81242B30939B
:10129000A4002093A3002D81209396002091A0000C
:1012A0003091A1008217930709F0B3CFAECFDF9141
:1012B000CF911F910F91FF90EF900895CF93DF93FF
:1012C000EC011092A2002881382FE82FFD2F80E03A
:1012D00031969FEF9E0F931B921718F490818927E8
:1012E000F7CF882331F080919B008F5F80939B0024
:1012F00027C08091F40080FF03C0CE010E94FF064A
:101300001092F4008981811104C0CE010E946D0702
:1013100015C087FD08C090E09093950080939400DD
:101320001092A2000DC0803C20F4CE010E9424083F
:1013300005C0883E28F4CE010E94C8078093A20011
:10134000DF91CF91089510929B001092F4008FEFDF
:101350008093E90084E190E00E940D0E4091A0008E
:101360005091A1002091A6003091A700440F551F75
:10137000440F551F5093F3004093F200813069F4FD
:10138000495F5F4F5093EB004093EA003093F000C9
:101390002093EF002F5F3F4F0AC04D5F5F4F509388
:1013A000EB004093EA003093F0002093EF0030937D
:1013B000EE002093ED000895CF93DF9390E0EC01D1
:1013C000CC0FDD1FC80FD91FCA50DF4F22E0288382
:1013D0008E5F9F4F0E940D0E898380919000803216
:1013E00009F41A82DF91CF91089515BA80E00E9426
:1013F000DC0981E00E94DC0982E00E94DC0983E0D4
:101400000E94DC0981E290E00E940D0E8093F500BD
:1014100008958091A500882309F4A9C080919C00BB
:1014200090919D00FC01EE0FFF1FE80FF91FEA509D
:10143000FF4F208130E08091910090919200281719
:10144000390729F48091F500882309F490C00E949F
:101450000C0280919000803109F041C045B3809129
:101460009C0090919D00880F991F20E830E0B90101
:1014700002C0759567958A95E2F7CB018095842324
:1014800085BB45B380919C0090919D00880F991F6A
:101490000196B90102C0759567958A95E2F7CB016F
:1014A0008095842385BBE0919C00F0919D00809104
:1014B000910090919200AF01440F551FE40FF51F6A
:1014C000EA50FF4F80836181628365B3840F951F6B
:1014D00002C0359527958A95E2F7622B65BB80910E
:1014E0009000803209F043C045B380919C009091F8
:1014F0009D00880F991F21E030E0B90102C0660FFE
:10150000771F8A95E2F7CB018095842385BB45B38D
:1015100080919C0090919D00880F991F0196B901C0
:1015200002C0660F771F8A95E2F7CB01809584236E
:1015300085BBE0919C00F0919D00409191005091FD
:101540009200CF01880F991FE80FF91FEA50FF4F53
:1015500040836181628365B3841B950B0196A90169
:1015600002C0440F551F8A95E2F7642B65BB0895AE
:10157000CF93DF93E8EFF0E021E030E080E090E00F
:1015800041E050E060E870E0C081CC23A9F1C15097
:1015900091F5A0919000A031B1F4D5B3DB01082EF4
:1015A00002C0B595A7950A94E2F7A095AD23A5BB17
:1015B000D5B3DB01022E02C0B595A7950A94E2F7D8
:1015C000A095AD23A5BBA0919000A032A1F4D5B306
:1015D000DA01082E01C0AA0F0A94EAF7A095AD23FC
:1015E000A5BBD5B3DA01022E01C0AA0F0A94EAF70F
:1015F000A095AD23A5BBC083339602962E5F3F4FC7
:101600008830910509F0C0CFDF91CF9108951F93E5
:10161000CF93DF93182F90E0EC01CC0FDD1FC80FA4
:10162000D91FCA50DF4F18828E5F9F4F0E940D0E48
:1016300089838A8395B3110F20E830E002C0359585
:1016400027951A95E2F7922B95BBC0E08091E700B1
:10165000882329F0CF5F0E9429020E94B80A1092C5
:10166000E700C33098F3DF91CF911F91089584E193
:1016700090E00E940D0E80932A0183E190E00E9489
:101680000D0E8F5F80932B0110929E0008950F9393
:101690001F93CF93DF93E2E0F1E08081880F808396
:1016A000359641E0EA32F407C1F789B3982F91707B
:1016B00020910201922B9093020181FB222720F9B5
:1016C00090910701922B9093070182FB222720F92A
:1016D00090910C01922B90930C0183FB222720F90F
:1016E00090911101922B9093110184FB222720F9F4
:1016F00090911601922B9093160185FB222720F9D9
:1017000090911B01922B90931B0186FB222720F9BD
:1017100090912001922B90932001881F8827881F89
:1017200090912501892B8093250150912B0124E074
:1017300031E086E091E0C5E0D1E003E011E0E2E0D5
:10174000F1E061E0408141504E3FC0F0688340814C
:10175000411108C0D8014C91442321F0D9011C92B9
:10176000DC015C9340814F3F51F4D8014C91411111
:1017700006C0D9016C93DC015C9301C018823596D8
:101780002B5F3F4F059625960B5F1F4FB1E0EA3266
:10179000FB07C1F6DF91CF911F910F91089591E062
:1017A00025E0681758F0289FF0011124EE5FFE4FE6
:1017B0003381313009F090E08F5FF3CF892F0895A6
:1017C00090E025E0681750F0289FF0011124EE5FAB
:1017D000FE4F3481311191E08F5FF4CF892F08954E
:1017E00025E0681770F0289FF0011124EE5FFE4F8E
:1017F000928191839481992311F0915094838F5F0A
:10180000F0CF0895CF938091C500882309F4DAC002
:1018100067E080E00E94CF0B882309F4D3C0809159
:101820002A01882309F474C08091CC008111FCCF77
:101830008091980080939E002091090140E8249FA8
:10184000900111248091040140E4849FC00111247F
:10185000C22FC82B61E080E00E94F00B8C2F0E9409
:101860000B038091CC008111FCCF80919800809374
:101870009E0020910E0180E4289F90011124809108
:10188000130140E8849FC0011124C22FC82BC860F7
:1018900063E082E00E94F00B8C2F0E940B0380918A
:1018A000CC008111FCCF809198008F5F80939E00C7
:1018B00020911D0180E8289F90011124809118013A
:1018C00040E4849FC0011124C22FC82B65E084E04E
:1018D0000E94F00B8C2F0E940B038091CC00811191
:1018E000FCCF809198008F5F80939E002091220111
:1018F00080E4289F900111248091270140E8849F73
:10190000C0011124C22FC82BC86067E086E052C016
:101910008091CC008111FCCF8091980080939E0033
:101920002091090180E8289F9001112480910401F1
:1019300040E4849FC0011124C22FC82B20910E01C6
:1019400080E1289F90011124C22B2091130140E2D5
:10195000249F90011124C22B63E080E00E94F00BD1
:101960008C2F0E940B038091CC008111FCCF8091C1
:10197000980080939E002091180180E4289F900198
:10198000112480911D0140E8849FC0011124C22FC1
:10199000C82BC8602091220180E1289F900111246A
:1019A000C22B2091270140E2249F90011124C22BD9
:1019B00067E084E00E94F00B8C2F0E940B0381E013
:1019C0008093CB00CF9108950F931F93CF93DF9314
:1019D0008091CC0081110BC180912A01882309F4E8
:1019E0009FC061E080E00E94CF0B882399F061E006
:1019F00080E00E94E00B882369F08091980080933A
:101A00009E000091040110E0C0910901D0E061E066
:101A100080E032C063E082E00E94CF0B882399F01F
:101A200063E082E00E94E00B882369F080919800D7
:101A300080939E0000910E0110E0C0911301D0E050
:101A400063E082E050C065E084E00E94CF0B882311
:101A500079F165E084E00E94E00B882349F18091F0
:101A600098008F5F80939E000091180110E0C09154
:101A70001D01D0E065E084E00E94F00B9E013695E8
:101A8000322F222737952795C80176E0880F991FB6
:101A90007A95E1F7822BE4E0000F111FEA95E1F758
:101AA000802BF5E0CC0FDD1FFA95E1F78C2B99C068
:101AB00067E086E00E94CF0B882309F498C067E0B6
:101AC00086E00E94E00B882309F491C08091980081
:101AD0008F5F80939E000091220110E0C09127014A
:101AE000D0E067E086E00E94F00B980186E0220FCC
:101AF000331F8A95E1F7CE019695982F8827979501
:101B00008795822B886044E0000F111F4A95E1F70A
:101B1000802B55E0CC0FDD1F5A95E1F78C2B61C06F
:101B200063E080E00E94CF0B882349F163E080E00E
:101B30000E94E00B882319F18091980080939E0009
:101B40002091090140E8249F900111248091040113
:101B500040E4849FC0011124C22FC82B20910E01A4
:101B600080E1289F90011124C22B2091130190E263
:101B7000299F90011124C22B63E080E02FC067E011
:101B800084E00E94CF0B882391F167E084E00E94FB
:101B9000E00B882361F18091980080939E00209152
:101BA000180140E4249F9001112480911D0140E818
:101BB000849FC0011124C22FC82BC860209122012C
:101BC00080E1289F90011124C22B2091270190E2EF
:101BD000299F90011124C22B67E084E00E94F00B42
:101BE0008C2FDF91CF911F910F910C940B03DF91FC
:101BF000CF911F910F91089580919800882351F003
:101C00000E94470B8091CB00811102C00C94020C02
:101C10000C94E40C08950C9469100C9461100E94CB
:101C2000B6050E9432060E946F030E94A3090E941B
:101C3000B3060E94FD020E94F50980919000803158
:101C400011F40E94370B78948091A0009091A1002C
:101C5000019619F485E00E941402869B0E94CD052E
:101C600080918F0080FF27C086ED90E00E945E0982
:101C70008091A2008823B1F0823011F40E94090AF9
:101C80008091A200833011F40E94090A8091A20081
:101C9000843011F40E94F8048091A200853011F480
:101CA0000E94F804F89480918F0080918F008E7FBD
:101CB00080938F0078948091E700882371F20E94CE
:101CC00029020E94B80A0E94A30580919F008111F9
:101CD0000E94FC0D1092E700C0CFAEE0B0E0E3E759
:101CE000FEE00C942A110D891E8986E08C831A83EC
:101CF00009838FEF9FE79E838D83AE01475E5F4F21
:101D00006F89788DCE0101960E948F0EEF81F88544
:101D1000E00FF11F10822E96E4E00C944611ACE027
:101D2000B0E0E5E9FEE00C941C117C016B018A0136
:101D3000FC0117821682838181FFBDC1CE0101960D
:101D40004C01F7019381F60193FD859193FF8191F9
:101D50006F01882309F4ABC1853239F493FD859175
:101D600093FF81916F01853229F4B70190E00E94C1
:101D70008C10E7CF512C312C20E02032A0F48B3294
:101D800069F030F4803259F0833269F420612CC05C
:101D90008D3239F0803339F4216026C0226024600E
:101DA00023C0286021C027FD27C030ED380F3A300E
:101DB00078F426FF06C0FAE05F9E300D1124532E02
:101DC00013C08AE0389E300D1124332E20620CC0DF
:101DD0008E3221F426FD6BC1206406C08C3611F4CE
:101DE000206802C0883641F4F60193FD859193FF87
:101DF00081916F018111C1CF982F9F7D95549330B0
:101E000028F40C5F1F4FFFE3F9830DC0833631F0D8
:101E1000833771F0833509F05BC022C0F8018081FF
:101E200089830E5F1F4F44244394512C540115C0E5
:101E30003801F2E06F0E711CF801A080B18026FF1E
:101E400003C0652D70E002C06FEF7FEFC5012C87E6
:101E50000E9481102C0183012C852F77222E17C020
:101E60003801F2E06F0E711CF801A080B18026FFEE
:101E700003C0652D70E002C06FEF7FEFC5012C87B6
:101E80000E9476102C012C852068222E830123FCD1
:101E90001BC0832D90E048165906B0F4B70180E2CC
:101EA00090E00E948C103A94F4CFF50127FC8591C4
:101EB00027FE81915F01B70190E00E948C103110E4
:101EC0003A94F1E04F1A51084114510471F7E5C0FA
:101ED000843611F0893639F5F80127FF07C0608193
:101EE0007181828193810C5F1F4F08C06081718175
:101EF000882777FD8095982F0E5F1F4F2F76B22E83
:101F000097FF09C090958095709561957F4F8F4F91
:101F10009F4F2068B22E2AE030E0A4010E94BE103C
:101F2000A82EA81844C0853729F42F7EB22E2AE0A7
:101F300030E025C0F22FF97FBF2E8F36C1F018F4A4
:101F4000883579F0B4C0803719F0883721F0AFC0F8
:101F50002F2F2061B22EB4FE0DC08B2D8460B82EC1
:101F600009C024FF0AC09F2F9660B92E06C028E042
:101F700030E005C020E130E002C020E132E0F801AD
:101F8000B7FE07C060817181828193810C5F1F4F12
:101F900006C06081718180E090E00E5F1F4FA40158
:101FA0000E94BE10A82EA818FB2DFF77BF2EB6FEEC
:101FB0000BC02B2D2E7FA51450F4B4FE0AC0B2FC2A
:101FC00008C02B2D2E7E05C07A2C2B2D03C07A2C19
:101FD00001C0752C24FF0DC0FE01EA0DF11D8081AA
:101FE000803311F4297E09C022FF06C073947394D4
:101FF00004C0822F867809F0739423FD13C020FF5C
:1020000006C05A2C731418F4530C5718732C7314FD
:1020100068F4B70180E290E02C870E948C107394E2
:102020002C85F5CF731410F4371801C0312C24FF20
:1020300012C0B70180E390E02C870E948C102C85A1
:1020400022FF17C021FF03C088E590E002C088E7A7
:1020500090E0B7010CC0822F867859F021FD02C0B4
:1020600080E201C08BE227FD8DE2B70190E00E9483
:102070008C10A51438F4B70180E390E00E948C1016
:102080005A94F7CFAA94F401EA0DF11D8081B701AB
:1020900090E00E948C10A110F5CF332009F451CEAE
:1020A000B70180E290E00E948C103A94F6CFF701DD
:1020B0008681978102C08FEF9FEF2C96E2E10C940E
:1020C0003811E199FECF9FBB8EBBE09A99278DB363
:1020D0000895262FE199FECF9FBB8EBB2DBB0FB677
:1020E000F894E29AE19A0FBE01960895FC010590DA
:1020F000615070400110D8F7809590958E0F9F1F0A
:102100000895FC016150704001900110D8F780954E
:1021100090958E0F9F1F08950F931F93CF93DF937A
:10212000182F092FEB018B8181FD03C08FEF9FEFEB
:1021300020C082FF10C04E815F812C813D814217FB
:1021400053077CF4E881F9819F012F5F3F4F39836A
:102150002883108306C0E885F985812F0995892B8E
:1021600029F72E813F812F5F3F4F3F832E83812FA1
:10217000902FDF91CF911F910F910895FA01AA2717
:10218000283051F1203181F1E8946F936E7F6E5FBA
:102190007F4F8F4F9F4FAF4FB1E03ED0B4E03CD068
:1021A000670F781F891F9A1FA11D680F791F8A1F4B
:1021B000911DA11D6A0F711D811D911DA11D20D0B2
:1021C00009F468943F912AE0269F11243019305D6C
:1021D0003193DEF6CF010895462F4770405D41935D
:1021E000B3E00FD0C9F7F6CF462F4F70405D4A33AA
:1021F00018F0495D31FD4052419302D0A9F7EACF72
:10220000B4E0A6959795879577956795BA95C9F7A0
:1022100000976105710508959B01AC010A2E069493
:102220005795479537952795BA95C9F7620F731F4C
:10223000841F951FA01D08952F923F924F925F9289
:102240006F927F928F929F92AF92BF92CF92DF92C6
:10225000EF92FF920F931F93CF93DF93CDB7DEB72B
:10226000CA1BDB0B0FB6F894DEBF0FBECDBF0994BF
:102270002A88398848885F846E847D848C849B8416
:10228000AA84B984C884DF80EE80FD800C811B8124
:10229000AA81B981CE0FD11D0FB6F894DEBF0FBE53
:0A22A000CDBFED010895F894FFCFC3
:1022AA0041696B6F20507261730047424D2064652B
:1022BA00636F646572004865783A20255800496E54
:0622CA00743A20256400B7
:00000001FF
